:100000000C9468000C9490000C9490000C94900058
:100010000C9490000C9490000C9490000C94900020
:100020000C9490000C9490000C9490000C94900010
:100030000C9490000C9490000C9490000C94900000
:100040000C945A070C9490000C94CA070C94A407C3
:100050000C9490000C9490000C9490000C949000E0
:100060000C9490000C9490006364696E6F707375CB
:1000700078585B00000000002300260029000000E3
:100080000000240027002A000000000025002800AE
:100090002B00040404040404040402020202020209
:1000A000030303030303010204081020408001023C
:1000B00004081020010204081020000000080002BB
:1000C0000100000304070000000000000000FC071E
:1000D00011241FBECFEFD8E0DEBFCDBF24E0A0EAE1
:1000E000B2E001C01D92A331B207E1F712E0A0E037
:1000F000B1E0EEE1F3E202C005900D92A03AB10743
:10010000D9F710E0C8E6D0E004C02197FE010E94B4
:100110003B0BC736D107C9F70E94E2080C948D113A
:100120000C940000833081F028F4813099F0823003
:10013000A9F008958730A9F08830C9F08430B1F46F
:10014000809180008F7D03C0809180008F778093A5
:100150008000089584B58F7784BD089584B58F7D20
:10016000FBCF8091B0008F778093B000089580918D
:10017000B0008F7DF9CF1F93CF93DF93282F30E00E
:10018000F901E654FF4F8491F901EA55FF4FD491EC
:10019000F901EE56FF4FC491CC23A9F0162F81111F
:1001A0000E949200EC2FF0E0EE0FFF1FE857FF4F88
:1001B000A591B4918FB7F894EC91111108C0D09526
:1001C000DE23DC938FBFDF91CF911F910895DE2B4B
:1001D000F8CFCF93DF9390E0FC01EA55FF4F2491D5
:1001E0008E569F4FFC0184918823C9F090E0880FC0
:1001F000991FFC01E258FF4FA591B491FC01E8570B
:10020000FF4FC591D49161110DC09FB7F8948C91A7
:10021000209582238C938881282328839FBFDF9198
:10022000CF910895623051F49FB7F8943C91822F9A
:10023000809583238C93E8812E2BEFCF8FB7F89492
:10024000EC912E2B2C938FBFEACF3FB7F89480917F
:10025000B5029091B602A091B702B091B80226B54E
:10026000A89B05C02F3F19F00196A11DB11D3FBFEE
:10027000BA2FA92F982F8827BC01CD01620F711DBD
:10028000811D911D42E0660F771F881F991F4A95B7
:10029000D1F708958F929F92AF92BF92CF92DF9243
:1002A000EF92FF920E9425014B015C0180EDC82E68
:1002B00087E0D82EE12CF12C0E94250168197909DC
:1002C0008A099B09683E734081059105A8F321E0E6
:1002D000C21AD108E108F10888EE880E83E0981E62
:1002E000A11CB11CC114D104E104F10429F7FF9051
:1002F000EF90DF90CF90BF90AF909F908F90089538
:10030000AF92BF92CF92DF92EF92FF920F931F9323
:10031000CF93DF936C017B018B01040F151FEB0161
:100320005E01AE18BF08C017D10759F06991D60118
:10033000ED91FC910190F081E02DC6010995892B8A
:1003400079F7C501DF91CF911F910F91FF90EF9049
:10035000DF90CF90BF90AF900895FC01538D448DF6
:10036000252F30E0842F90E0821B930B541710F060
:10037000CF96089501970895FC01918D828D98176D
:1003800061F0A28DAE0FBF2FB11D5D968C91928D45
:100390009F5F9F73928F90E008958FEF9FEF089576
:1003A000FC01918D828D981731F0828DE80FF11D3F
:1003B000858D90E008958FEF9FEF0895FC01918D5A
:1003C000228D892F90E0805C9F4F821B91098F7353
:1003D0009927089589ED92E00E94DE0121E0892BA2
:1003E00009F420E0822F089580E090E0892B29F025
:1003F0000E94EA0181110C9400000895FC01A48D73
:10040000A80FB92FB11DA35ABF4F2C91848D90E036
:1004100001968F739927848FA689B7892C93A08919
:10042000B1898C91837080648C93938D848D9813A3
:1004300006C00288F389E02D80818F7D8083089536
:10044000EF92FF920F931F93CF93DF93EC0181E024
:10045000888F9B8D8C8D98131AC0E889F9898081CB
:1004600085FF15C09FB7F894EE89FF896083E889FE
:10047000F98980818370806480839FBF81E090E0F0
:10048000DF91CF911F910F91FF90EF900895F62E7D
:100490000B8D10E00F5F1F4F0F731127E02E8C8D17
:1004A0008E110CC00FB607FCFACFE889F98980815C
:1004B00085FFF5CFCE010E94FE01F1CFEB8DEC0F51
:1004C000FD2FF11DE35AFF4FF0829FB7F8940B8F79
:1004D000EA89FB8980818062CFCFCF93DF93EC01E3
:1004E000888D8823B9F0AA89BB89E889F9898C911C
:1004F00085FD03C0808186FD0DC00FB607FCF7CFD8
:100500008C9185FFF2CF808185FFEDCFCE010E94D7
:10051000FE01E9CFDF91CF910895CF93DF93DC0106
:1005200026E0629FA00DB11D112490965C934E931E
:100530005F9721E091962C939197FC01E359FF4F2F
:100540000190F081E02DEC01C459DF4F2881222376
:1005500041F0309719F0DC01662329F0DF91CF914B
:1005600008953097D9F35C968C91DF91CF910994DF
:10057000CF92DF92EF92FF920F931F93CF93DF936F
:10058000FC0126E0629FE00DF11D112411A2278DD0
:1005900030A12130310559F188F02230310509F4BC
:1005A00052C02330310509F453C0DF91CF911F9120
:1005B0000F91FF90EF90DF90CF9008954423A9F31F
:1005C000EC0141E050E00E948D022FB7F894809139
:1005D000B1029091B202A091B302B091B4022FBFC8
:1005E000C85ADF4F88839983AA83BB83DECF2FB796
:1005F000F894C090B102D090B202E090B302F090B3
:10060000B4022FBFFC01E85AFF4F00811181228103
:100610003381C01AD10AE20AF30A7296008111816D
:1006200030E020E00C151D052E053F0560F442E08A
:1006300050E0DF91CF911F910F91FF90EF90DF90ED
:10064000CF900C948D024111B0CF43E050E0F1CF38
:1006500050E040E0EECFCF93DF9370E0FB01E65433
:10066000FF4F8491FB01EA55FF4FD4916E567F4FA7
:10067000FB01C491CC23A1F081110E949200EC2FC8
:10068000F0E0EE0FFF1FEC58FF4FA591B491EC91F5
:10069000ED2381E090E009F480E0DF91CF910895AF
:1006A00080E090E0FACF862F642F0C94BB00862F59
:1006B000642F0C94E900089590E080E00895CF93B2
:1006C000DF93EC0160E088810E94BB0060E08981DB
:1006D000DF91CF910C94BB002F923F924F925F928B
:1006E0006F927F928F929F92AF92BF92CF92DF9242
:1006F000EF92FF920F931F93CF93DF93CDB7DEB7A7
:1007000028970FB6F894DEBF0FBECDBF8091AE0222
:100710009091AF02892B09F4C0C12091AE023091B3
:10072000AF0238872F8339013CE6630E711CE1E08C
:10073000D301EC938FB7F8944091B1025091B2027B
:100740006091B3027091B4028FBF2F813885245A13
:100750003F4F3A832983F90180819181A281B3813E
:10076000481B590B6A0B7B0BEF81F885E859FF4F4B
:1007700080819181B0E0A0E084179507A607B707B4
:1007800008F088C1F12C2F803884F6E62F0E311C3A
:100790000F8118850E591F4FD1018C91F816A0F4C6
:1007A000F801A081B181AF0DB11DEF81F885808185
:1007B0009181FC012081318142E06C918F8198858B
:1007C000F9010995F394E8CF512C2F8138852959E7
:1007D0003F4F3C832B83CF80D88434E6C30ED11C9B
:1007E0004F8158854E595F4F5E834D83AB81BC81ED
:1007F0008C91581608F086C0E52CF12CF601A081EA
:10080000B181AE0DBF1DEF81F88580819181FC0122
:100810002081318141E06C918F819885F9010995A2
:10082000F601A081B181AE0DBF1DEF81F8858081F9
:100830009181FC012281338140E06C918F81988508
:10084000F901099581E090E0A0E0B0E0052C04C03A
:10085000880F991FAA1FBB1F0A94D2F74C015C0195
:10086000A094B094412CAF81B885ED91FC91D10159
:100870008C91481628F5042D10E0AD81BE818D9134
:100880009C91DC01A00FB11F0480F581E02D6C91DB
:100890008F8198850995000F111FEF81F885E00F72
:1008A000F11F892B41F480859185882999299187A9
:1008B00080874394D8CF808591858A219B21F7CF6B
:1008C000D6018D919C91DC01AE0DBF1D0280F3819C
:1008D000E02D41E06C918F8198850995F60180812A
:1008E0009181E80EF91EAF81B885ED91FC910190E0
:1008F000F081E02D40E0D7016C918F8198850995BA
:10090000539474CFEF80F884C701CC968701F80127
:10091000278D30A1232B31F4148E2FEF3FEF368F2C
:10092000258F11A20A5F1F4F8017910781F7B12C05
:10093000CF80D88430E6C30ED11CD1018C91B8167B
:1009400008F05BC0A12C8B2C912CB4E08B0E911C79
:10095000880C991CEF81F8858E0E9F1EAB81BC819F
:100960008C91A81608F047C0F401408151810A2CEF
:1009700002C0569547950A94E2F7B89EC00111242B
:100980008A0D911DEF81F88560E0258D368D8217E7
:10099000930709F485C06F5F36966A30B1F740FF60
:1009A00028C0EF81F88570E060E0248D21111BC024
:1009B000D601ED91FC91E80FF91F2081B6E0B69FBA
:1009C000F001B79FF00D11244F815885E40FF51FFA
:1009D000248F968F858F10A2178E41E08F81988586
:1009E0000E94B80206C06F5F7F4F36966A3071056D
:1009F000E1F6A394B3CFB394A0CF80E0D701919652
:100A00009C919111892FB6E0EB0EF11CE016F106D6
:100A1000A9F79FB7F8944091B1025091B20260914A
:100A2000B3027091B4029FBFE981FA814083518380
:100A300062837383882371F1AF81B88591968C911D
:100A40009197882339F15F968D919C9190970197AA
:100A500009F55C968C91882309F45FCE082E000C72
:100A6000990B28960FB6F894DEBF0FBECDBFDF916D
:100A7000CF911F910F91FF90EF90DF90CF90BF909B
:100A8000AF909F908F907F906F905F904F903F902E
:100A90002F900895F301108240CE8FEF9FEFE1CFAA
:100AA00041709CCFCF93C82F8A3029F46DE089ED37
:100AB00092E00E9420026C2F89ED92E00E942002B9
:100AC00090E080E0CF910895CF93DF931F92CDB750
:100AD000DEB71982CE0101969F938F9385E491E052
:100AE0009F938F938BEC92E09F938F930E94BA0B0E
:100AF0000F900F900F900F900F900F9089810F9093
:100B0000DF91CF910895EF92FF920F931F93CF93B0
:100B10008C01C0E0E0918103CE17A0F47801EC0EC7
:100B2000F11C0E94640590ED980F9A30D0F7F70100
:100B300080836DEB72E0082E000C990B0E94630B12
:100B4000CF5FE8CFE00FF12FF11D1082CF911F9101
:100B50000F91FF90EF900895CF93DF93EC0160E049
:100B60008E810E94BB0061E08E810E94BB0060E02C
:100B70008E810E94BB008BE891E00197F1F7DF9135
:100B8000CF910895CF92DF92EF92FF920F931F9330
:100B9000CF93DF936C017C0187E0E80EF11CD0E07D
:100BA000C0E0062F10E0B8010C2E02C075956795C5
:100BB0000A94E2F76170F70181917F010E94BB0006
:100BC0002196C430D10579F7C601DF91CF911F91ED
:100BD0000F91FF90EF90DF90CF900C94AC05CF92E7
:100BE000DF92EF92FF920F931F93CF93DF93EC016D
:100BF000F62E642F8C810E94BB008D818F3F19F0EF
:100C000060E00E94BB000F2D10E08F8584FF25C09F
:100C10006E0187E0C80ED11CF12CE12CB8010E2C1E
:100C200002C0759567950A94E2F76170F6018191AB
:100C30006F010E94BB00FFEFEF1AFF0A88E0E81681
:100C4000F10461F7CE01DF91CF911F910F91FF90D9
:100C5000EF90DF90CF900C94AC05B80184E07595CF
:100C600067958A95E1F7CE010E94C2056F2DCE01EE
:100C7000DF91CF911F910F91FF90EF90DF90CF9078
:100C80000C94C20541E00E94EF0581E090E00895D8
:100C900040E00C94EF05643008F063E0FC01238928
:100CA000621710F06FEF620FFC01E60FF11D64890F
:100CB00060680C944806682F1092BC028093BB02B7
:100CC0008091B9029091BA02009711F00C944B06F2
:100CD0000895682F8091B9029091BA020097F1F0BF
:100CE0006A3071F41092BC026091BB0270E06F5FD9
:100CF0007F4F617077276093BB020E944B060EC046
:100D0000DC01ED91FC910190F081E02D099580913D
:100D1000BC028F5F803128F48093BC0290E080E0B9
:100D200008951092BC026091BB0270E06F5F7F4F2C
:100D3000617077276093BB028091B9029091BA02EB
:100D4000DCCF61E00E9448068BE39FE10197F1F759
:100D5000089580917603909177030E94A10680E028
:100D60000E945B066DEB72E088E491E00E94930BB9
:100D700081E00E945B066DEB72E084E591E00E94E9
:100D8000930B81E00C945B060F931F93CF93DF933B
:100D9000EC01423018F08F8588608F874B8B1C8A5E
:100DA00080E48D8B6E8B605C6F8B61E08C810E9428
:100DB000E9008D818F3F19F061E00E94E90061E058
:100DC0008E810E94E9008E0198012C1B3D0B8F85BE
:100DD00084FD0DC084E090E00F5F1F4F2817390796
:100DE0004CF461E0F80186810E94E900EDCF88E0D3
:100DF00090E0F2CF8BE39DE00197F1F760E08C810A
:100E00000E94BB0060E08E810E94BB008D818F3FFD
:100E100019F060E00E94BB006F8564FD34C063E0A0
:100E2000CE010E94C2050BE416E4C8010197F1F758
:100E300063E0CE010E94C205C8010197F1F763E0AB
:100E4000CE010E94C20583E592E00197F1F762E0CE
:100E5000CE010E94C2056F856062CE010E944806E5
:100E600084E0888B6CE0CE010E944806CE010E948F
:100E7000A10682E0898B66E0CE01DF91CF911F91C0
:100E80000F910C9448066062CE010E9448068BE4E4
:100E900096E40197F1F76F856062CE010E944806E3
:100EA00083E592E00197F1F76F856062CE010E94C1
:100EB0004806D1CF1F920F920FB60F9211242F9395
:100EC0003F938F939F93AF93BF938091B102909183
:100ED000B202A091B302B091B4023091B00223E00B
:100EE000230F2D3758F50196A11DB11D2093B00297
:100EF0008093B1029093B202A093B302B093B40274
:100F00008091B5029091B602A091B702B091B8025B
:100F10000196A11DB11D8093B5029093B602A093D6
:100F2000B702B093B802BF91AF919F918F913F915B
:100F30002F910F900FBE0F901F90189526E8230F4A
:100F40000296A11DB11DD2CF1F920F920FB60F9224
:100F500011242F933F934F935F936F937F938F93BE
:100F60009F93AF93BF93EF93FF9389ED92E00E941D
:100F7000FE01FF91EF91BF91AF919F918F917F9172
:100F80006F915F914F913F912F910F900FBE0F90F6
:100F90001F9018951F920F920FB60F9211242F9346
:100FA0008F939F93EF93FF93E091E902F091EA0210
:100FB0008081E091EF02F091F00282FD1BC09081F0
:100FC0008091F2028F5F8F732091F302821741F0BC
:100FD000E091F202F0E0E752FD4F958F8093F2022C
:100FE000FF91EF919F918F912F910F900FBE0F90D6
:100FF0001F9018958081F4CF1092DC021092DB02D2
:1010000088EE93E0A0E0B0E08093DD029093DE02F2
:10101000A093DF02B093E0028CE191E09093DA02BA
:101020008093D90285EC90E09093E6028093E502EC
:1010300084EC90E09093E8028093E70280EC90E0EB
:101040009093EA028093E90281EC90E09093EC02A5
:101050008093EB0282EC90E09093EE028093ED029D
:1010600086EC90E09093F0028093EF021092F202EF
:101070001092F3021092F4021092F5021092F6030D
:101080001092F50388E391E09093F4038093F303C7
:101090008DE08093F7038FEF8093F8038CE08093CB
:1010A000F9038BE08093FA038AE08093FB0389E0E5
:1010B0008093FC0388E08093FD031092FE0310925E
:1010C000FF0310920004109201041092020441E008
:1010D00060E183EF93E00E94C40680E180930B04FB
:1010E00082E080930C041092860310928A0310927F
:1010F000890310928B038EE291E090938503809395
:101100008403E0EAF3E0108214821382158236969B
:1011100083E0EC3DF807B9F784E091E09093E703B2
:101120008093E60380E091E09093E9038093E803E5
:1011300084E08093EA038093EB0328E031E030936E
:10114000E5032093E4032AE030E03093ED0320939D
:10115000EC0324EF31E03093EF032093EE03109281
:10116000F2031092F1031092E0031092E103109247
:10117000E2031092E3031092F0039EE09093820347
:101180009FE09093830323EF33E030937703209322
:10119000760324E833E0309379032093780322E840
:1011A00033E030937B0320937A0380938103E0E460
:1011B000F1E0ACE7B3E001900D928A95E1F710926F
:1011C00080030895CF93DF93CDB7DEB72F970FB687
:1011D000F894DEBF0FBECDBF789484B5826084BD25
:1011E00084B5816084BD85B5826085BD85B581602B
:1011F00085BD80916E00816080936E0010928100A9
:101200008091810082608093810080918100816063
:101210008093810080918000816080938000809124
:10122000B10084608093B1008091B00081608093B0
:10123000B00080917A00846080937A0080917A0077
:10124000826080937A0080917A00816080937A0036
:1012500080917A00806880937A001092C10080911A
:10126000760390917703FC01418D608D0E94C40646
:1012700000917A0310917B0361E0F80180810E9464
:10128000E90061E0F80181810E94E900C8010E9443
:101290005F038091780390917903209176033091D8
:1012A00077033093BA022093B9029093AF028093F0
:1012B000AE021092BC021092BB02E091E902F091E2
:1012C000EA0282E08083E091E502F091E60210827A
:1012D000E091E702F091E80290E190831092F10230
:1012E000E091ED02F091EE0296E09083E091EB0246
:1012F000F091EC02908190619083E091EB02F0918B
:10130000EC02908198609083E091EB02F091EC0206
:10131000908190689083E091EB02F091EC029081D3
:101320009F7D908322E535E03093A9022093A802A7
:101330001092AB021092AA028093A3021092AD0207
:101340001092AC0229E636E03093C6022093C50223
:101350001092C8021092C7028093C0021092CA0273
:101360001092C9021092D4021092D3028CE693E03C
:101370009093D6028093D50281E08093CE021092A2
:10138000D8021092D70280EA92E0909310048093E2
:101390000F04809181031F928F9385E691E09F93C4
:1013A0008F930E94CC0B82E991E00E94E20B0E9495
:1013B000A9060F900F900F900F908E01055F1F4FA1
:1013C0006E01F6E0CF0ED11C9E012F5F3F4F5901F9
:1013D00041E1442E42E0542E3BE1632E32E0732E75
:1013E00095E0392E20E0822E20E0922EF801232D68
:1013F00011922A95E9F70E946405F82E31E48313CF
:10140000BAC0F601232D11922A95E9F7F501232D93
:1014100011922A95E9F780917603909177030E94C3
:10142000A10680E00E945B066DEB72E08EEA91E01F
:101430000E94930B81E00E945B06C6010E94830517
:101440006CE773E0C6010E94410B892B59F1E090D3
:101450007A03F0907B0360E0F70180810E94BB007B
:1014600061E0F70181810E94BB0080917603909139
:1014700077030E94A10680E00E945B066DEB72E09C
:1014800088EB91E00E94930B81E00E945B066DEB7C
:1014900072E087EC91E00E94930B86ED91E00E9450
:1014A000E20B53C080917603909177030E94A106CE
:1014B00080E00E945B066DEB72E08AEF91E00E9493
:1014C000930B81E00E945B06C5010E948305B50174
:1014D0008CE793E00E944A0BE0907A03F0907B0344
:1014E00061E0F70180810E94BB0060E0F70181812B
:1014F0000E94BB0080917603909177030E94A10621
:1015000080E00E945B066DEB72E084E092E00E9456
:10151000930B81E00E945B068CE7E82E83E0F82EB7
:10152000FF92EF925F924F928DEB92E09F938F9399
:101530000E94510BFF92EF927F926F920E94CC0B10
:101540000FB6F894DEBF0FBECDBF0E944A01809156
:101550007A0390917B030E945F030E94A906811485
:10156000910409F443CF0E94EA01882309F438CF9B
:101570000E94000031CF81E00E945B06FB866DEB8C
:1015800072E08F2DFF0C990B0E94630B2224239491
:10159000E09181032E16A8F4E22CF12C0E94640540
:1015A00090ED980F9A30D0F7F801EE0DFF1D808373
:1015B0006DEB72E0082E000C990B0E94630B2394D4
:1015C000E7CFE00FF12FF11D10828091760390910B
:1015D00077030E94A10680E00E945B061F930F9391
:1015E00084E492E09F938F938DEB92E09F938F938F
:1015F0000E94510B1F930F932DE432E03F932F93E2
:101600000E94CC0B81E00E945B066CE773E0C8018E
:101610000E94410B0FB6F894DEBF0FBECDBFE09025
:101620007A03F0907B03892B99F461E0F7018081C4
:101630000E94BB0060E0F70181810E94BB006DEB5E
:1016400072E08FE592E00E94930B80E792E027CF53
:1016500060E0F70180810E94BB0061E0F7018181B9
:101660000E94BB006DEB72E08EE792E00E94930B4C
:101670008FE892E014CFEE0FFF1F0590F491E02D5C
:101680000994FB01DC018D91019080190110D9F3BF
:10169000990B0895FB01DC0101900D920020E1F708
:1016A0000895B0E0A0E0E7E5FBE00C946611AE0120
:1016B000475F5F4F6F8178858D819E810E940D0C01
:1016C000E2E00C9482110F931F93CF93DF93182FB6
:1016D000092FEB018B8181FD09C01FEF0FEF812FD7
:1016E000902FDF91CF911F910F91089582FF14C029
:1016F0002E813F818C819D81281739073CF4E88138
:10170000F981CF0101969983888310838E819F810F
:1017100001969F838E83E3CFE885F985812F099514
:10172000892BA1F3DACFEF92FF920F931F93CF9300
:10173000DF93FB01238121FF19C0EB018C01F12C08
:10174000E12CF80181918F01811106C0C701CDB74D
:10175000DEB7E6E00C947E11E885F985BE010995B7
:10176000892B79F3EE24EA94FE2CEBCFEE24EA9455
:10177000FE2CECCFB0E0A0E0E0ECFBE00C946611B6
:10178000AE01475F5F4F6F8178858D819E810E949A
:10179000720FE2E00C948211B0E0A0E0E2EDFBE019
:1017A0000C946611AE014B5F5F4FFA01619171912C
:1017B000AF0180910F04909110040E940D0CE2E0A3
:1017C0000C9482110F931F93CF93DF93E0910F043A
:1017D000F09110042381EC0110E000E021FD08C02D
:1017E0000FEF1FEF14C00995892B11F00FEF1FEFBA
:1017F000899160910F0470911004DB011896ED91AE
:10180000FC918111F0CF8AE00995892B49F7C80135
:10181000DF91CF911F910F910895ABE0B0E0E3E12C
:10182000FCE00C9456117C013B018A01FC011782FB
:101830001682838181FFC8C1CE0101965C01F70148
:101840009381F30193FD859193FF81913F0188235B
:1018500009F453C1853239F493FD859193FF819149
:101860003F01853229F4B70190E00E94630BE7CF76
:10187000912C212C312CFFE1F31538F08B3211F132
:1018800090F4803209F1833229F137FC3CC020ED1D
:10189000280F2A3050F536FE20C08AE0989E200D91
:1018A0001124922E06C08D3291F0803371F7689426
:1018B00030F8F30193FD859193FF81913F018111F0
:1018C000DACF21C0689431F8689432F8F2CF689486
:1018D00033F8EFCF689434F8ECCFEAE02E9E200D79
:1018E0001124222E689435F8E4CF8E3229F436FC88
:1018F00004C1689436F8DDCF8C3619F4689437F853
:10190000D8CF8836B1F2982F9F7D95549330E0F070
:101910008336A1F18337C1F1833509F063C0280113
:10192000F2E04F0E511CF801C080D180692D70E0AB
:1019300036FC02C06FEF7FEFC6010E948B104C0196
:10194000689437F882010AC00C5F1F4FFFE3F983E8
:1019500088248394912C6501E89437F833FE2DC0D8
:10196000522C8114910471F5552009F468CFB70108
:1019700080E290E00E94630B5A94F6CFF8018081D8
:1019800089830E5F1F4FE4CF2801F2E04F0E511CF8
:10199000F801C080D180692D70E036FC02C06FEF85
:1019A0007FEFC6010E9496104C018201D5CFB7018E
:1019B00080E290E00E94630B2A942814190409F035
:1019C000B0F7CECFF60137FC859137FE81916F01DC
:1019D000B70190E00E94630B51105A94F1E08F1A06
:1019E0009108BFCF843619F0893609F077C0F80125
:1019F00037FE6BC060817181828193810C5F1F4FC4
:101A0000F32DFF763F2E97FF09C090958095709536
:101A100061957F4F8F4F9F4F689437F82AE030E0F1
:101A2000A5010E94F510C82ECA188C2C432C36FE36
:101A30000CC0E89440F8C91440F434FE05C032FCF0
:101A400003C0F32DFE7E4F2E892C44FE95C0FE016F
:101A5000EC0DF11D8081803309F087C0242D297E93
:101A6000422E842D8870582E43FC95C040FE8FC0B6
:101A70009C2C821418F42C0C922C981844FE91C0C3
:101A8000B70180E390E00E94630B42FE09C088E743
:101A900090E041FE02C088E590E0B7010E94630B30
:101AA000C91408F48AC0CA94D12C9FEFC91AD90A64
:101AB000CA0CDB1CF60182916F01B70190E00E9415
:101AC000630BAC14BD04B1F74FCF60817181072E59
:101AD000000C880B990B0E5F1F4F92CFD32CE8940C
:101AE000D4F82AE030E0853739F1232D297FD22E32
:101AF0008F3601F148F48835A9F0F7018681978186
:101B00002B96E2E10C947211803749F08837A9F7DF
:101B1000D4FE02C06894D2F820E130E00DC0689491
:101B2000D4F8F6CF34FE03C0822F8660D82E20E191
:101B300032E002C028E030E0F801D7FE0FC060813B
:101B40007181828193810C5F1F4FA5010E94F51066
:101B5000C82ECA183D2CE89437F867CF6081718190
:101B600090E080E00E5F1F4FF0CF42FC02C08394F4
:101B700078CF8394839475CF842D867809F471CFC0
:101B8000F6CFB70180E290E00E94630B8394821449
:101B9000C0F3512C73CF522C5818821408F46ECF16
:101BA000F8CF842D867809F47BCF8BE241FE80E26A
:101BB00047FC8DE2B70190E071CFB70180E390E080
:101BC0000E94630B9A946CCF8FEF9FEF99CF20FD0B
:101BD00009C0FC0123FD05C022FF02C0738362839C
:101BE00051834083089544FD17C046FD1DC0DB01AD
:101BF000FC01AA0FBB1FEE1FFF1F1094D1F76A0F45
:101C00007B1F8E1F9F1F660F771F881F991F620FF4
:101C1000711D811D911D089533E0660F771F881F88
:101C2000991F3150D1F7F3CF34E0F7CF0F931F93C3
:101C3000CF93DF938C01C8010E94A110EC0197FDA6
:101C400008C00E947710892BB1F7B801CE010E941D
:101C5000DD10CE01DF91CF911F910F9108958F92EA
:101C60009F92AF92BF92EF92FF920F931F93CF93E9
:101C7000DF938C01D62F7A01B22E0E94A1109C0115
:101C800033272B32310529F02D323105A9F4689420
:101C9000B7F8D15061F480E0DF91CF911F910F919F
:101CA000FF90EF90BF90AF909F908F900895C801E4
:101CB0000E94A11097FDEFCFCB2DCD7F2B2D207350
:101CC000F9F48033E9F4AA24AA94AD0E89F0C8018E
:101CD0000E94A11097FD0CC0282F2F7D283561F49C
:101CE000C264D25029F0C8010E94A11097FF08C019
:101CF000812C912C54011BC0B6FE2BC0C260DA2D82
:101D0000812C912C540120ED280F283028F1C4FD9E
:101D100009C02A3008F1C6FF05C02F7D3FEE320F03
:101D20003630C8F0B8010E94DD10C1FFB4CFC7FF44
:101D300008C0B094A09490948094811C911CA11C24
:101D4000B11C2C2FB501A401C7010E94E70D81E051
:101D5000A3CFC261D4CF27504C2FC501B4010E943C
:101D6000F30D4B015C01C260D15009F3C8010E9420
:101D7000A11097FFC8CFD9CFA0E2B0E0E2ECFEE01F
:101D80000C945B115C01962E7A01CE0101966C01D8
:101D900080E2F60111928A95E9F7F501B381890194
:101DA00030E020E0712C812CA0E041E050E0F8010F
:101DB000B3FD8591B3FF8191982F8F01811107C0E9
:101DC00010E000E0C801A096EDE00C9477118E358C
:101DD00019F42115310541F1A21713064CF48D3584
:101DE00049F18D3229F4811006C0882483941DC0E6
:101DF000882009F464C0E92FE695E695E695EC0D98
:101E0000FD2DF11D892F8770BA0101C0660F8A95DB
:101E1000EAF78081682B6083791651F0971510F4EA
:101E20009F5FE9CF9150E7CFA1E02F5F3F4FBFCF3A
:101E3000812CFBCF882019F08E8180628E83AA23AB
:101E400059F0F6019E012F5D3F4F80818095808380
:101E50003196E217F307C9F788248394C5010E94DD
:101E6000A11097FD16C0E82FE695E695E695EC0DD6
:101E7000FD2DF11D208130E0AC014770552702C0D7
:101E8000359527954A95E2F720FD06C0B5010E94D9
:101E9000DD10882069F094CFE114F10429F0F701F6
:101EA0008083C70101967C019A94812C9110D6CF32
:101EB000E114F10409F486CFF701108283CFE82FF3
:101EC000E695E695E695EC0DFD2DF11D982F9770A2
:101ED000BA0101C0660F9A95EAF79081692B608379
:101EE000782EA3CFB0E0A0E0E8E7FFE00C94591112
:101EF0006C01EB015A01FC0117821682512CF6018C
:101F0000E380FE01E3FC8591E3FE8191182FEF0150
:101F10008823E9F090E00E947710892B21F0C60118
:101F20000E94160EECCF153241F4FE01E3FC159130
:101F3000E3FE1191EF01153269F4C6010E94A11070
:101F400097FD8EC01817D9F2B6010E94DD10852DBD
:101F500090E08AC000E01A3231F4E3FC1591E3FE10
:101F60001191EF0101E0F12C20ED210F2A3048F111
:101F700001FF37C0FF2059F31836B1F11C3609F4C0
:101F80003DC0112321F3612F70E088E690E00E94AC
:101F90008010892BE1F2912C812C00FD06C0F50107
:101FA00080809180C50102965C011E3679F5F601AC
:101FB0004681578170E060E0202FC4010E94E70D48
:101FC0009ECF02606F2D70E090E080E040E20E94C2
:101FD000F30DF62EFE01E3FC1591E3FE1191EF01E6
:101FE000C3CFFF24FA94C8CFFE01E3FC1591E3FEB2
:101FF0001191EF01183609F0C4CF08600460FE01AA
:10200000E3FC1591E3FE1191EF01BBCF1336C1F450
:1020100001FD02C0FF24F394C6010E94A11097FDA8
:102020001FC08114910429F0F4018083C40101963A
:102030004C01FA94F110F0CF00FD61CF53945FCFC3
:102040001B35B9F49E01A4016F2DC6010E94BC0E80
:10205000EC01892B89F7F6018381807309F477CF2E
:102060008FEF9FEF511073CFCDB7DEB7EFE00C9439
:102070007511C6010E94160E97FDF2CF1F36A9F109
:1020800030F4143641F0193639F0006405C01337C6
:10209000B9F01537D1F70062202FA4016F2DC601CA
:1020A0000E942F0E8111C8CFD6CF8114910429F040
:1020B000F4016082C40101964C01FA94FF2071F092
:1020C000C6010E94A1103C0197FD08C00E94771034
:1020D000892B59F3B601C3010E94DD1081149104CC
:1020E00009F4AACFF4011082A7CF0061D5CF9111D6
:1020F0000C945311803219F089508550C8F7089517
:10210000FC010590061621F00020D9F7C0010895C2
:102110003197CF010895FC01059061507040011086
:10212000D8F7809590958E0F9F1F0895FC01615000
:10213000704001900110D8F7809590958E0F9F1FE9
:102140000895CF93DF93EC012B8120FF1AC026FF67
:102150000CC02F7B2B838E819F8101969F838E8362
:102160008A8190E0DF91CF91089522FF18C0E88125
:10217000F9818081082E000C990B009729F42062C8
:102180002B838FEF9FEFEECF3196F983E8832E817B
:102190003F812F5F3F4F3F832E839927E3CFEA850F
:1021A000FB85099597FFF3CF2B81019621F080E203
:1021B000822B8B83E6CF80E1FBCFFB01238120FFC5
:1021C00011C026FD0FC08F3F980771F082832F7DCD
:1021D0002064238326813781215031093783268368
:1021E000992708958FEF9FEF0895FA01AA272830C5
:1021F00051F1203181F1E8946F936E7F6E5F7F4FD4
:102200008F4F9F4FAF4FB1E03ED0B4E03CD0670F4F
:10221000781F891F9A1FA11D680F791F8A1F911DA2
:10222000A11D6A0F711D811D911DA11D20D009F4F2
:1022300068943F912AE0269F11243019305D319334
:10224000DEF6CF010895462F4770405D4193B3E01D
:102250000FD0C9F7F6CF462F4F70405D4A3318F0C4
:10226000495D31FD4052419302D0A9F7EACFB4E075
:10227000A6959795879577956795BA95C9F700972D
:102280006105710508959B01AC010A2E06945795CE
:10229000479537952795BA95C9F7620F731F841F25
:1022A000951FA01D08959927882708952F923F9282
:1022B0004F925F926F927F928F929F92AF92BF9256
:1022C000CF92DF92EF92FF920F931F93CF93DF9302
:1022D000CDB7DEB7CA1BDB0B0FB6F894DEBF0FBE5F
:1022E000CDBF09942A88398848885F846E847D84AC
:1022F0008C849B84AA84B984C884DF80EE80FD80AE
:102300000C811B81AA81B981CE0FD11D0FB6F89423
:0E231000DEBF0FBECDBFED010895F894FFCFE4
:10231E0003021110070605043132334134353642BB
:10232E00373839432A302344000000002002800150
:10233E00AD016D02DE01BC01D001000000005703AB
:10234E0053032B0300000000420680015C035B0375
:10235E003132333400256300456E74657220436F4D
:10236E0064653A00202020202020202020202020DC
:10237E0020202020004C616220312E3220737461A7
:10238E00727465642E20456E746572202575206406
:10239E006967697473206F6E206B65797061642E46
:1023AE000A005072657373204120746F2063686158
:1023BE006E67652074686520636F64652E004F6CD0
:1023CE006420436F64653A0057726F6E67204F6CDE
:1023DE006420436F646500436F646520556E6368C7
:1023EE00616E67656400436F6465206368616E6744
:1023FE0065206661696C65643A2077726F6E67203E
:10240E006F6C6420636F64652E004E657720436F9A
:10241E0064653A00436F6465205570646174656449
:10242E000053617665643A20257300436F6465201E
:10243E006368616E67656420737563636573736645
:10244E00756C6C792E204E657720636F64653A202B
:10245E0025730A00436F64653A20257300456E7438
:10246E006572656420636F64653A2025730A0041C6
:10247E006363657373204772616E74656420200018
:10248E00526573756C743A2056414C494400416351
:10249E00636573732044656E696564202020005265
:1024AE006573756C743A20494E56414C4944000090
:00000001FF
